{
  "_format": "hh-sol-artifact-1",
  "contractName": "BaseFarming",
  "sourceName": "contracts/BaseFarming.sol",
  "abi": [
    {
      "anonymous": false,
      "inputs": [
        {
          "indexed": true,
          "internalType": "address",
          "name": "user",
          "type": "address"
        },
        {
          "indexed": true,
          "internalType": "uint256",
          "name": "pid",
          "type": "uint256"
        },
        {
          "indexed": false,
          "internalType": "uint256",
          "name": "amount",
          "type": "uint256"
        }
      ],
      "name": "Deposit",
      "type": "event"
    },
    {
      "anonymous": false,
      "inputs": [
        {
          "indexed": true,
          "internalType": "address",
          "name": "user",
          "type": "address"
        },
        {
          "indexed": true,
          "internalType": "uint256",
          "name": "pid",
          "type": "uint256"
        },
        {
          "indexed": false,
          "internalType": "uint256",
          "name": "amount",
          "type": "uint256"
        }
      ],
      "name": "EmergencyWithdraw",
      "type": "event"
    },
    {
      "anonymous": false,
      "inputs": [
        {
          "indexed": false,
          "internalType": "uint8",
          "name": "version",
          "type": "uint8"
        }
      ],
      "name": "Initialized",
      "type": "event"
    },
    {
      "anonymous": false,
      "inputs": [
        {
          "indexed": true,
          "internalType": "bytes32",
          "name": "role",
          "type": "bytes32"
        },
        {
          "indexed": true,
          "internalType": "bytes32",
          "name": "previousAdminRole",
          "type": "bytes32"
        },
        {
          "indexed": true,
          "internalType": "bytes32",
          "name": "newAdminRole",
          "type": "bytes32"
        }
      ],
      "name": "RoleAdminChanged",
      "type": "event"
    },
    {
      "anonymous": false,
      "inputs": [
        {
          "indexed": true,
          "internalType": "bytes32",
          "name": "role",
          "type": "bytes32"
        },
        {
          "indexed": true,
          "internalType": "address",
          "name": "account",
          "type": "address"
        },
        {
          "indexed": true,
          "internalType": "address",
          "name": "sender",
          "type": "address"
        }
      ],
      "name": "RoleGranted",
      "type": "event"
    },
    {
      "anonymous": false,
      "inputs": [
        {
          "indexed": true,
          "internalType": "bytes32",
          "name": "role",
          "type": "bytes32"
        },
        {
          "indexed": true,
          "internalType": "address",
          "name": "account",
          "type": "address"
        },
        {
          "indexed": true,
          "internalType": "address",
          "name": "sender",
          "type": "address"
        }
      ],
      "name": "RoleRevoked",
      "type": "event"
    },
    {
      "anonymous": false,
      "inputs": [
        {
          "indexed": true,
          "internalType": "address",
          "name": "user",
          "type": "address"
        },
        {
          "indexed": true,
          "internalType": "uint256",
          "name": "pid",
          "type": "uint256"
        },
        {
          "indexed": false,
          "internalType": "uint256",
          "name": "amount",
          "type": "uint256"
        }
      ],
      "name": "Withdraw",
      "type": "event"
    },
    {
      "inputs": [],
      "name": "DEFAULT_ADMIN_ROLE",
      "outputs": [
        {
          "internalType": "bytes32",
          "name": "",
          "type": "bytes32"
        }
      ],
      "stateMutability": "view",
      "type": "function"
    },
    {
      "inputs": [
        {
          "internalType": "uint256",
          "name": "_allocPoint",
          "type": "uint256"
        },
        {
          "internalType": "contract IERC20",
          "name": "_lpToken",
          "type": "address"
        },
        {
          "internalType": "bool",
          "name": "_withUpdate",
          "type": "bool"
        }
      ],
      "name": "add",
      "outputs": [],
      "stateMutability": "nonpayable",
      "type": "function"
    },
    {
      "inputs": [],
      "name": "allEndTime",
      "outputs": [
        {
          "internalType": "uint256",
          "name": "",
          "type": "uint256"
        }
      ],
      "stateMutability": "view",
      "type": "function"
    },
    {
      "inputs": [
        {
          "internalType": "uint256",
          "name": "_pid",
          "type": "uint256"
        },
        {
          "internalType": "uint256",
          "name": "_amount",
          "type": "uint256"
        }
      ],
      "name": "deposit",
      "outputs": [],
      "stateMutability": "nonpayable",
      "type": "function"
    },
    {
      "inputs": [
        {
          "internalType": "address",
          "name": "_devaddr",
          "type": "address"
        }
      ],
      "name": "dev",
      "outputs": [],
      "stateMutability": "nonpayable",
      "type": "function"
    },
    {
      "inputs": [],
      "name": "devaddr",
      "outputs": [
        {
          "internalType": "address",
          "name": "",
          "type": "address"
        }
      ],
      "stateMutability": "view",
      "type": "function"
    },
    {
      "inputs": [
        {
          "internalType": "uint256",
          "name": "_pid",
          "type": "uint256"
        }
      ],
      "name": "emergencyWithdraw",
      "outputs": [],
      "stateMutability": "nonpayable",
      "type": "function"
    },
    {
      "inputs": [
        {
          "internalType": "uint256",
          "name": "_from",
          "type": "uint256"
        },
        {
          "internalType": "uint256",
          "name": "_to",
          "type": "uint256"
        }
      ],
      "name": "getMultiplier",
      "outputs": [
        {
          "internalType": "uint256",
          "name": "",
          "type": "uint256"
        }
      ],
      "stateMutability": "view",
      "type": "function"
    },
    {
      "inputs": [
        {
          "internalType": "bytes32",
          "name": "role",
          "type": "bytes32"
        }
      ],
      "name": "getRoleAdmin",
      "outputs": [
        {
          "internalType": "bytes32",
          "name": "",
          "type": "bytes32"
        }
      ],
      "stateMutability": "view",
      "type": "function"
    },
    {
      "inputs": [
        {
          "internalType": "bytes32",
          "name": "role",
          "type": "bytes32"
        },
        {
          "internalType": "address",
          "name": "account",
          "type": "address"
        }
      ],
      "name": "grantRole",
      "outputs": [],
      "stateMutability": "nonpayable",
      "type": "function"
    },
    {
      "inputs": [
        {
          "internalType": "bytes32",
          "name": "role",
          "type": "bytes32"
        },
        {
          "internalType": "address",
          "name": "account",
          "type": "address"
        }
      ],
      "name": "hasRole",
      "outputs": [
        {
          "internalType": "bool",
          "name": "",
          "type": "bool"
        }
      ],
      "stateMutability": "view",
      "type": "function"
    },
    {
      "inputs": [
        {
          "internalType": "contract IERC20",
          "name": "_rewardToken",
          "type": "address"
        },
        {
          "internalType": "address",
          "name": "_devaddr",
          "type": "address"
        },
        {
          "internalType": "uint256",
          "name": "_rewardPerSecond",
          "type": "uint256"
        },
        {
          "internalType": "uint256",
          "name": "_startTime",
          "type": "uint256"
        },
        {
          "internalType": "uint256",
          "name": "_allEndTime",
          "type": "uint256"
        }
      ],
      "name": "initialize",
      "outputs": [],
      "stateMutability": "nonpayable",
      "type": "function"
    },
    {
      "inputs": [
        {
          "internalType": "address",
          "name": "",
          "type": "address"
        }
      ],
      "name": "lpUsed",
      "outputs": [
        {
          "internalType": "bool",
          "name": "",
          "type": "bool"
        }
      ],
      "stateMutability": "view",
      "type": "function"
    },
    {
      "inputs": [],
      "name": "massUpdatePools",
      "outputs": [],
      "stateMutability": "nonpayable",
      "type": "function"
    },
    {
      "inputs": [
        {
          "internalType": "uint256",
          "name": "_pid",
          "type": "uint256"
        },
        {
          "internalType": "address",
          "name": "_user",
          "type": "address"
        }
      ],
      "name": "pendingReward",
      "outputs": [
        {
          "internalType": "uint256",
          "name": "",
          "type": "uint256"
        }
      ],
      "stateMutability": "view",
      "type": "function"
    },
    {
      "inputs": [
        {
          "internalType": "uint256",
          "name": "",
          "type": "uint256"
        }
      ],
      "name": "poolInfo",
      "outputs": [
        {
          "internalType": "contract IERC20",
          "name": "lpToken",
          "type": "address"
        },
        {
          "internalType": "uint256",
          "name": "allocPoint",
          "type": "uint256"
        },
        {
          "internalType": "uint256",
          "name": "lastRewardTimestamp",
          "type": "uint256"
        },
        {
          "internalType": "uint256",
          "name": "accRewardPerShare",
          "type": "uint256"
        }
      ],
      "stateMutability": "view",
      "type": "function"
    },
    {
      "inputs": [],
      "name": "poolLength",
      "outputs": [
        {
          "internalType": "uint256",
          "name": "",
          "type": "uint256"
        }
      ],
      "stateMutability": "view",
      "type": "function"
    },
    {
      "inputs": [
        {
          "internalType": "bytes32",
          "name": "role",
          "type": "bytes32"
        },
        {
          "internalType": "address",
          "name": "account",
          "type": "address"
        }
      ],
      "name": "renounceRole",
      "outputs": [],
      "stateMutability": "nonpayable",
      "type": "function"
    },
    {
      "inputs": [
        {
          "internalType": "bytes32",
          "name": "role",
          "type": "bytes32"
        },
        {
          "internalType": "address",
          "name": "account",
          "type": "address"
        }
      ],
      "name": "revokeRole",
      "outputs": [],
      "stateMutability": "nonpayable",
      "type": "function"
    },
    {
      "inputs": [],
      "name": "rewardPerSecond",
      "outputs": [
        {
          "internalType": "uint256",
          "name": "",
          "type": "uint256"
        }
      ],
      "stateMutability": "view",
      "type": "function"
    },
    {
      "inputs": [],
      "name": "rewardToken",
      "outputs": [
        {
          "internalType": "contract IERC20",
          "name": "",
          "type": "address"
        }
      ],
      "stateMutability": "view",
      "type": "function"
    },
    {
      "inputs": [
        {
          "internalType": "uint256",
          "name": "_pid",
          "type": "uint256"
        },
        {
          "internalType": "uint256",
          "name": "_allocPoint",
          "type": "uint256"
        },
        {
          "internalType": "bool",
          "name": "_withUpdate",
          "type": "bool"
        }
      ],
      "name": "set",
      "outputs": [],
      "stateMutability": "nonpayable",
      "type": "function"
    },
    {
      "inputs": [],
      "name": "startTime",
      "outputs": [
        {
          "internalType": "uint256",
          "name": "",
          "type": "uint256"
        }
      ],
      "stateMutability": "view",
      "type": "function"
    },
    {
      "inputs": [
        {
          "internalType": "bytes4",
          "name": "interfaceId",
          "type": "bytes4"
        }
      ],
      "name": "supportsInterface",
      "outputs": [
        {
          "internalType": "bool",
          "name": "",
          "type": "bool"
        }
      ],
      "stateMutability": "view",
      "type": "function"
    },
    {
      "inputs": [],
      "name": "totalAllocPoint",
      "outputs": [
        {
          "internalType": "uint256",
          "name": "",
          "type": "uint256"
        }
      ],
      "stateMutability": "view",
      "type": "function"
    },
    {
      "inputs": [
        {
          "internalType": "uint256",
          "name": "_pid",
          "type": "uint256"
        }
      ],
      "name": "updatePool",
      "outputs": [],
      "stateMutability": "nonpayable",
      "type": "function"
    },
    {
      "inputs": [
        {
          "internalType": "uint256",
          "name": "",
          "type": "uint256"
        },
        {
          "internalType": "address",
          "name": "",
          "type": "address"
        }
      ],
      "name": "userInfo",
      "outputs": [
        {
          "internalType": "uint256",
          "name": "amount",
          "type": "uint256"
        },
        {
          "internalType": "uint256",
          "name": "rewardDebt",
          "type": "uint256"
        }
      ],
      "stateMutability": "view",
      "type": "function"
    },
    {
      "inputs": [
        {
          "internalType": "uint256",
          "name": "_pid",
          "type": "uint256"
        },
        {
          "internalType": "uint256",
          "name": "_amount",
          "type": "uint256"
        }
      ],
      "name": "withdraw",
      "outputs": [],
      "stateMutability": "nonpayable",
      "type": "function"
    }
  ],
  "bytecode": "0x60806040526000600a5534801561001557600080fd5b506001600255611cb08061002a6000396000f3fe608060405234801561001057600080fd5b50600436106101c45760003560e01c806378e97925116100f9578063a217fddf11610097578063d49e77cd11610071578063d49e77cd146103e8578063d547741f14610413578063e2bbb15814610426578063f7c618c11461043957600080fd5b8063a217fddf146103c4578063b9e1c365146103cc578063d13f90b4146103d557600080fd5b80638f10369a116100d35780638f10369a1461034e57806391d148541461035757806393f1a40b1461036a57806398969e82146103b157600080fd5b806378e979251461031f5780638d88a90e146103285780638dbb1e3a1461033b57600080fd5b806336568abe1161016657806351eb05a61161014057806351eb05a6146102de5780635312ea8e146102f1578063630b5ba11461030457806364482f791461030c57600080fd5b806336568abe14610295578063441a3e70146102a857806351a8cf11146102bb57600080fd5b806317caf6f1116101a257806317caf6f1146102405780631eaaa04514610249578063248a9ca31461025e5780632f2ff15d1461028257600080fd5b806301ffc9a7146101c9578063081e3eda146101f15780631526fe2714610203575b600080fd5b6101dc6101d73660046118f5565b61044c565b60405190151581526020015b60405180910390f35b6008545b6040519081526020016101e8565b61021661021136600461191f565b610483565b604080516001600160a01b03909516855260208501939093529183015260608201526080016101e8565b6101f5600a5481565b61025c61025736600461195b565b6104c7565b005b6101f561026c36600461191f565b6000908152600160208190526040909120015490565b61025c61029036600461199d565b6106c3565b61025c6102a336600461199d565b6106ee565b61025c6102b63660046119cd565b61076c565b6101dc6102c93660046119ef565b600b6020526000908152604090205460ff1681565b61025c6102ec36600461191f565b6108d4565b61025c6102ff36600461191f565b610a07565b61025c610b0c565b61025c61031a366004611a0c565b610b33565b6101f560055481565b61025c6103363660046119ef565b610c3e565b6101f56103493660046119cd565b610cb2565b6101f560075481565b6101dc61036536600461199d565b610d07565b61039c61037836600461199d565b60096020908152600092835260408084209091529082529020805460019091015482565b604080519283526020830191909152016101e8565b6101f56103bf36600461199d565b610d32565b6101f5600081565b6101f560065481565b61025c6103e3366004611a3a565b610ea2565b6004546103fb906001600160a01b031681565b6040516001600160a01b0390911681526020016101e8565b61025c61042136600461199d565b610ffa565b61025c6104343660046119cd565b611020565b6003546103fb906001600160a01b031681565b60006001600160e01b03198216637965db0b60e01b148061047d57506301ffc9a760e01b6001600160e01b03198316145b92915050565b6008818154811061049357600080fd5b600091825260209091206004909102018054600182015460028301546003909301546001600160a01b039092169350919084565b6104d2600033610d07565b6105145760405162461bcd60e51b815260206004820152600e60248201526d30b2321d103737ba1030b236b4b760911b60448201526064015b60405180910390fd5b6001600160a01b0382166000908152600b602052604090205460ff161561057d5760405162461bcd60e51b815260206004820152601d60248201527f6164643a206c7020697320616c72656164792072656769737465726564000000604482015260640161050b565b6001600160a01b0382166000908152600b60205260409020805460ff1916600117905580156105ae576105ae610b0c565b600060055442116105c1576005546105c3565b425b905083600a546105d39190611aa1565b600a55604080516080810182526001600160a01b0394851681526020810195865290810191825260006060820181815260088054600181018255925291517ff3f7a9fe364faab93b216da50a3214154f22a0a2b415b23a84c8169e8b636ee3600490920291820180546001600160a01b031916919096161790945593517ff3f7a9fe364faab93b216da50a3214154f22a0a2b415b23a84c8169e8b636ee4840155517ff3f7a9fe364faab93b216da50a3214154f22a0a2b415b23a84c8169e8b636ee58301555090517ff3f7a9fe364faab93b216da50a3214154f22a0a2b415b23a84c8169e8b636ee690910155565b600082815260016020819052604090912001546106df81611196565b6106e983836111a0565b505050565b6001600160a01b038116331461075e5760405162461bcd60e51b815260206004820152602f60248201527f416363657373436f6e74726f6c3a2063616e206f6e6c792072656e6f756e636560448201526e103937b632b9903337b91039b2b63360891b606482015260840161050b565b610768828261120b565b5050565b610774611272565b60085482106107bd5760405162461bcd60e51b81526020600482015260156024820152741dda5d1a191c985dce881a5b9d985b1a59081c1a59605a1b604482015260640161050b565b6000600883815481106107d2576107d2611ab4565b60009182526020808320868452600982526040808520338652909252922060049091029091019150610803846108d4565b6000816001015464e8d4a51000846003015484600001546108249190611aca565b61082e9190611ae1565b6108389190611b03565b8254909150610848908590611b03565b808355600384015464e8d4a51000916108619190611aca565b61086b9190611ae1565b600183015561087a33826112c9565b8254610890906001600160a01b031633866113f7565b604051848152859033907ff279e6a1f5e320cca91135676d9cb6e44ca8a08c0b88342bcdb1144f6511b5689060200160405180910390a35050506107686001600255565b6000600882815481106108e9576108e9611ab4565b9060005260206000209060040201905080600201544211610908575050565b80546040516370a0823160e01b81523060048201526000916001600160a01b0316906370a0823190602401602060405180830381865afa158015610950573d6000803e3d6000fd5b505050506040513d601f19601f820116820180604052508101906109749190611b16565b90508060000361098957504260029091015550565b6000610999836002015442610cb2565b90506000600a548460010154600754846109b39190611aca565b6109bd9190611aca565b6109c79190611ae1565b9050826109d98264e8d4a51000611aca565b6109e39190611ae1565b84600301546109f29190611aa1565b60038501555050426002909201919091555050565b610a0f611272565b6008548110610a605760405162461bcd60e51b815260206004820152601e60248201527f656d657267656e637957697468647261773a20696e76616c6964207069640000604482015260640161050b565b600060088281548110610a7557610a75611ab4565b600091825260208083208584526009825260408085203380875293528420805485825560018201959095556004909302018054909450919291610ac5916001600160a01b039190911690836113f7565b604051818152849033907fbb757047c2b5f3974fe26b7c10f732e7bce710b0952a71082702781e62ae05959060200160405180910390a3505050610b096001600255565b50565b60085460005b8181101561076857610b23816108d4565b610b2c81611b2f565b9050610b12565b610b3e600033610d07565b610b7b5760405162461bcd60e51b815260206004820152600e60248201526d39b2ba1d103737ba1030b236b4b760911b604482015260640161050b565b6008548310610bbf5760405162461bcd60e51b815260206004820152601060248201526f1cd95d0e881a5b9d985b1a59081c1a5960821b604482015260640161050b565b8015610bcd57610bcd610b0c565b8160088481548110610be157610be1611ab4565b906000526020600020906004020160010154600a54610c009190611b03565b610c0a9190611aa1565b600a819055508160088481548110610c2457610c24611ab4565b906000526020600020906004020160010181905550505050565b6004546001600160a01b03163314610c905760405162461bcd60e51b815260206004820152601560248201527453686f756c6420626520646576206164647265737360581b604482015260640161050b565b600480546001600160a01b0319166001600160a01b0392909216919091179055565b60006005548211610cc55750600061047d565b6006548310610cd65750600061047d565b600554831015610ce65760055492505b600654821115610cf65760065491505b610d008383611b03565b9392505050565b60009182526001602090815260408084206001600160a01b0393909316845291905290205460ff1690565b60008060088481548110610d4857610d48611ab4565b600091825260208083208784526009825260408085206001600160a01b038981168752935280852060049485029092016003810154815492516370a0823160e01b8152309681019690965290965091949193919216906370a0823190602401602060405180830381865afa158015610dc4573d6000803e3d6000fd5b505050506040513d601f19601f82011682018060405250810190610de89190611b16565b9050836002015442118015610dfc57508015155b15610e6a576000610e11856002015442610cb2565b90506000600a54866001015460075484610e2b9190611aca565b610e359190611aca565b610e3f9190611ae1565b905082610e518264e8d4a51000611aca565b610e5b9190611ae1565b610e659085611aa1565b935050505b6001830154835464e8d4a5100090610e83908590611aca565b610e8d9190611ae1565b610e979190611b03565b979650505050505050565b600054610100900460ff1615808015610ec25750600054600160ff909116105b80610edc5750303b158015610edc575060005460ff166001145b610f3f5760405162461bcd60e51b815260206004820152602e60248201527f496e697469616c697a61626c653a20636f6e747261637420697320616c72656160448201526d191e481a5b9a5d1a585b1a5e995960921b606482015260840161050b565b6000805460ff191660011790558015610f62576000805461ff0019166101001790555b600380546001600160a01b038089166001600160a01b0319928316179092556004805492881692909116919091179055600784905560058390556006829055610fac60003361145a565b8015610ff2576000805461ff0019169055604051600181527f7f26b83ff96e1f2b6a682f133852f6798a09c465da95921460cefb38474024989060200160405180910390a15b505050505050565b6000828152600160208190526040909120015461101681611196565b6106e9838361120b565b611028611272565b60085482106110705760405162461bcd60e51b815260206004820152601460248201527319195c1bdcda5d0e881a5b9d985b1a59081c1a5960621b604482015260640161050b565b60006008838154811061108557611085611ab4565b600091825260208083208684526009825260408085203386529092529220600490910290910191506110b6846108d4565b805415611100576000816001015464e8d4a51000846003015484600001546110de9190611aca565b6110e89190611ae1565b6110f29190611b03565b90506110fe33826112c9565b505b821561112d57815461111d906001600160a01b0316333086611464565b805461112a908490611aa1565b81555b6003820154815464e8d4a510009161114491611aca565b61114e9190611ae1565b6001820155604051838152849033907f90890809c654f11d6e72a28fa60149770a0d11ec6c92319d6ceb2bb0a4ea1a159060200160405180910390a350506107686001600255565b610b09813361149c565b6111aa8282610d07565b6107685760008281526001602081815260408084206001600160a01b0386168086529252808420805460ff19169093179092559051339285917f2f8788117e7eff1d82e926ec794901d17c78024a50270940304540a733656f0d9190a45050565b6112158282610d07565b156107685760008281526001602090815260408083206001600160a01b0385168085529252808320805460ff1916905551339285917ff6391f5c32d9c69d2a47ea670b442974b53935d1edc7fd64eb21e047a839171b9190a45050565b60028054036112c35760405162461bcd60e51b815260206004820152601f60248201527f5265656e7472616e637947756172643a207265656e7472616e742063616c6c00604482015260640161050b565b60028055565b6003546040516370a0823160e01b81523060048201526000916001600160a01b0316906370a0823190602401602060405180830381865afa158015611312573d6000803e3d6000fd5b505050506040513d601f19601f820116820180604052508101906113369190611b16565b9050808211156113be5760035460405163a9059cbb60e01b81526001600160a01b038581166004830152602482018490529091169063a9059cbb906044015b6020604051808303816000875af1158015611394573d6000803e3d6000fd5b505050506040513d601f19601f820116820180604052508101906113b89190611b48565b50505050565b60035460405163a9059cbb60e01b81526001600160a01b038581166004830152602482018590529091169063a9059cbb90604401611375565b6040516001600160a01b0383166024820152604481018290526106e990849063a9059cbb60e01b906064015b60408051601f198184030181529190526020810180516001600160e01b03166001600160e01b0319909316929092179091526114f5565b61076882826111a0565b6040516001600160a01b03808516602483015283166044820152606481018290526113b89085906323b872dd60e01b90608401611423565b6114a68282610d07565b610768576114b3816115c7565b6114be8360206115d9565b6040516020016114cf929190611b89565b60408051601f198184030181529082905262461bcd60e51b825261050b91600401611bfe565b600061154a826040518060400160405280602081526020017f5361666545524332303a206c6f772d6c6576656c2063616c6c206661696c6564815250856001600160a01b03166117759092919063ffffffff16565b8051909150156106e957808060200190518101906115689190611b48565b6106e95760405162461bcd60e51b815260206004820152602a60248201527f5361666545524332303a204552433230206f7065726174696f6e20646964206e6044820152691bdd081cdd58d8d9595960b21b606482015260840161050b565b606061047d6001600160a01b03831660145b606060006115e8836002611aca565b6115f3906002611aa1565b67ffffffffffffffff81111561160b5761160b611c31565b6040519080825280601f01601f191660200182016040528015611635576020820181803683370190505b509050600360fc1b8160008151811061165057611650611ab4565b60200101906001600160f81b031916908160001a905350600f60fb1b8160018151811061167f5761167f611ab4565b60200101906001600160f81b031916908160001a90535060006116a3846002611aca565b6116ae906001611aa1565b90505b6001811115611726576f181899199a1a9b1b9c1cb0b131b232b360811b85600f16601081106116e2576116e2611ab4565b1a60f81b8282815181106116f8576116f8611ab4565b60200101906001600160f81b031916908160001a90535060049490941c9361171f81611c47565b90506116b1565b508315610d005760405162461bcd60e51b815260206004820181905260248201527f537472696e67733a20686578206c656e67746820696e73756666696369656e74604482015260640161050b565b6060611784848460008561178c565b949350505050565b6060824710156117ed5760405162461bcd60e51b815260206004820152602660248201527f416464726573733a20696e73756666696369656e742062616c616e636520666f6044820152651c8818d85b1b60d21b606482015260840161050b565b600080866001600160a01b031685876040516118099190611c5e565b60006040518083038185875af1925050503d8060008114611846576040519150601f19603f3d011682016040523d82523d6000602084013e61184b565b606091505b5091509150610e9787838387606083156118c65782516000036118bf576001600160a01b0385163b6118bf5760405162461bcd60e51b815260206004820152601d60248201527f416464726573733a2063616c6c20746f206e6f6e2d636f6e7472616374000000604482015260640161050b565b5081611784565b61178483838151156118db5781518083602001fd5b8060405162461bcd60e51b815260040161050b9190611bfe565b60006020828403121561190757600080fd5b81356001600160e01b031981168114610d0057600080fd5b60006020828403121561193157600080fd5b5035919050565b6001600160a01b0381168114610b0957600080fd5b8015158114610b0957600080fd5b60008060006060848603121561197057600080fd5b83359250602084013561198281611938565b915060408401356119928161194d565b809150509250925092565b600080604083850312156119b057600080fd5b8235915060208301356119c281611938565b809150509250929050565b600080604083850312156119e057600080fd5b50508035926020909101359150565b600060208284031215611a0157600080fd5b8135610d0081611938565b600080600060608486031215611a2157600080fd5b833592506020840135915060408401356119928161194d565b600080600080600060a08688031215611a5257600080fd5b8535611a5d81611938565b94506020860135611a6d81611938565b94979496505050506040830135926060810135926080909101359150565b634e487b7160e01b600052601160045260246000fd5b8082018082111561047d5761047d611a8b565b634e487b7160e01b600052603260045260246000fd5b808202811582820484141761047d5761047d611a8b565b600082611afe57634e487b7160e01b600052601260045260246000fd5b500490565b8181038181111561047d5761047d611a8b565b600060208284031215611b2857600080fd5b5051919050565b600060018201611b4157611b41611a8b565b5060010190565b600060208284031215611b5a57600080fd5b8151610d008161194d565b60005b83811015611b80578181015183820152602001611b68565b50506000910152565b7f416363657373436f6e74726f6c3a206163636f756e7420000000000000000000815260008351611bc1816017850160208801611b65565b7001034b99036b4b9b9b4b733903937b6329607d1b6017918401918201528351611bf2816028840160208801611b65565b01602801949350505050565b6020815260008251806020840152611c1d816040850160208701611b65565b601f01601f19169190910160400192915050565b634e487b7160e01b600052604160045260246000fd5b600081611c5657611c56611a8b565b506000190190565b60008251611c70818460208701611b65565b919091019291505056fea2646970667358221220a39256b8e0ac8907ef6304f8e97b15d3da4fe4893669ae8e428f0f24296bf30a64736f6c63430008110033",
  "linkReferences": {},
  "deployedLinkReferences": {}
}